{
  "contractName": "MoneyMarket",
  "abi": [
    {
      "inputs": [
        {
          "internalType": "address",
          "name": "_vlToken",
          "type": "address"
        },
        {
          "internalType": "address",
          "name": "_sbToken",
          "type": "address"
        },
        {
          "internalType": "address",
          "name": "_priceOracle",
          "type": "address"
        },
        {
          "internalType": "address",
          "name": "initialOwner",
          "type": "address"
        }
      ],
      "stateMutability": "nonpayable",
      "type": "constructor"
    },
    {
      "inputs": [
        {
          "internalType": "address",
          "name": "owner",
          "type": "address"
        }
      ],
      "name": "OwnableInvalidOwner",
      "type": "error"
    },
    {
      "inputs": [
        {
          "internalType": "address",
          "name": "account",
          "type": "address"
        }
      ],
      "name": "OwnableUnauthorizedAccount",
      "type": "error"
    },
    {
      "anonymous": false,
      "inputs": [
        {
          "indexed": true,
          "internalType": "address",
          "name": "user",
          "type": "address"
        },
        {
          "indexed": false,
          "internalType": "uint256",
          "name": "amount",
          "type": "uint256"
        }
      ],
      "name": "Borrowed",
      "type": "event"
    },
    {
      "anonymous": false,
      "inputs": [
        {
          "indexed": true,
          "internalType": "address",
          "name": "user",
          "type": "address"
        },
        {
          "indexed": false,
          "internalType": "uint256",
          "name": "amount",
          "type": "uint256"
        }
      ],
      "name": "Deposited",
      "type": "event"
    },
    {
      "anonymous": false,
      "inputs": [
        {
          "indexed": true,
          "internalType": "address",
          "name": "liquidator",
          "type": "address"
        },
        {
          "indexed": true,
          "internalType": "address",
          "name": "borrower",
          "type": "address"
        },
        {
          "indexed": false,
          "internalType": "uint256",
          "name": "repayAmountSB",
          "type": "uint256"
        },
        {
          "indexed": false,
          "internalType": "uint256",
          "name": "seizedVL",
          "type": "uint256"
        }
      ],
      "name": "Liquidated",
      "type": "event"
    },
    {
      "anonymous": false,
      "inputs": [
        {
          "indexed": true,
          "internalType": "address",
          "name": "previousOwner",
          "type": "address"
        },
        {
          "indexed": true,
          "internalType": "address",
          "name": "newOwner",
          "type": "address"
        }
      ],
      "name": "OwnershipTransferred",
      "type": "event"
    },
    {
      "anonymous": false,
      "inputs": [
        {
          "indexed": true,
          "internalType": "address",
          "name": "user",
          "type": "address"
        },
        {
          "indexed": false,
          "internalType": "uint256",
          "name": "amount",
          "type": "uint256"
        }
      ],
      "name": "Repaid",
      "type": "event"
    },
    {
      "anonymous": false,
      "inputs": [
        {
          "indexed": true,
          "internalType": "address",
          "name": "user",
          "type": "address"
        },
        {
          "indexed": false,
          "internalType": "uint256",
          "name": "amount",
          "type": "uint256"
        }
      ],
      "name": "Withdrawn",
      "type": "event"
    },
    {
      "inputs": [],
      "name": "BASIS_POINTS",
      "outputs": [
        {
          "internalType": "uint256",
          "name": "",
          "type": "uint256"
        }
      ],
      "stateMutability": "view",
      "type": "function"
    },
    {
      "inputs": [],
      "name": "PRICE_SCALE",
      "outputs": [
        {
          "internalType": "uint256",
          "name": "",
          "type": "uint256"
        }
      ],
      "stateMutability": "view",
      "type": "function"
    },
    {
      "inputs": [],
      "name": "closeFactor",
      "outputs": [
        {
          "internalType": "uint256",
          "name": "",
          "type": "uint256"
        }
      ],
      "stateMutability": "view",
      "type": "function"
    },
    {
      "inputs": [
        {
          "internalType": "address",
          "name": "",
          "type": "address"
        }
      ],
      "name": "collateralBalance",
      "outputs": [
        {
          "internalType": "uint256",
          "name": "",
          "type": "uint256"
        }
      ],
      "stateMutability": "view",
      "type": "function"
    },
    {
      "inputs": [],
      "name": "collateralFactor",
      "outputs": [
        {
          "internalType": "uint256",
          "name": "",
          "type": "uint256"
        }
      ],
      "stateMutability": "view",
      "type": "function"
    },
    {
      "inputs": [
        {
          "internalType": "address",
          "name": "",
          "type": "address"
        }
      ],
      "name": "debtBalance",
      "outputs": [
        {
          "internalType": "uint256",
          "name": "",
          "type": "uint256"
        }
      ],
      "stateMutability": "view",
      "type": "function"
    },
    {
      "inputs": [],
      "name": "liquidationBonus",
      "outputs": [
        {
          "internalType": "uint256",
          "name": "",
          "type": "uint256"
        }
      ],
      "stateMutability": "view",
      "type": "function"
    },
    {
      "inputs": [],
      "name": "liquidationThreshold",
      "outputs": [
        {
          "internalType": "uint256",
          "name": "",
          "type": "uint256"
        }
      ],
      "stateMutability": "view",
      "type": "function"
    },
    {
      "inputs": [],
      "name": "owner",
      "outputs": [
        {
          "internalType": "address",
          "name": "",
          "type": "address"
        }
      ],
      "stateMutability": "view",
      "type": "function"
    },
    {
      "inputs": [],
      "name": "priceOracle",
      "outputs": [
        {
          "internalType": "contract MockPriceOracle",
          "name": "",
          "type": "address"
        }
      ],
      "stateMutability": "view",
      "type": "function"
    },
    {
      "inputs": [],
      "name": "renounceOwnership",
      "outputs": [],
      "stateMutability": "nonpayable",
      "type": "function"
    },
    {
      "inputs": [],
      "name": "sbToken",
      "outputs": [
        {
          "internalType": "contract StableToken",
          "name": "",
          "type": "address"
        }
      ],
      "stateMutability": "view",
      "type": "function"
    },
    {
      "inputs": [
        {
          "internalType": "address",
          "name": "newOwner",
          "type": "address"
        }
      ],
      "name": "transferOwnership",
      "outputs": [],
      "stateMutability": "nonpayable",
      "type": "function"
    },
    {
      "inputs": [],
      "name": "vlToken",
      "outputs": [
        {
          "internalType": "contract IERC20",
          "name": "",
          "type": "address"
        }
      ],
      "stateMutability": "view",
      "type": "function"
    },
    {
      "inputs": [
        {
          "internalType": "uint256",
          "name": "bps",
          "type": "uint256"
        }
      ],
      "name": "setCollateralFactor",
      "outputs": [],
      "stateMutability": "nonpayable",
      "type": "function"
    },
    {
      "inputs": [
        {
          "internalType": "uint256",
          "name": "bps",
          "type": "uint256"
        }
      ],
      "name": "setLiquidationThreshold",
      "outputs": [],
      "stateMutability": "nonpayable",
      "type": "function"
    },
    {
      "inputs": [
        {
          "internalType": "uint256",
          "name": "bps",
          "type": "uint256"
        }
      ],
      "name": "setLiquidationBonus",
      "outputs": [],
      "stateMutability": "nonpayable",
      "type": "function"
    },
    {
      "inputs": [
        {
          "internalType": "uint256",
          "name": "bps",
          "type": "uint256"
        }
      ],
      "name": "setCloseFactor",
      "outputs": [],
      "stateMutability": "nonpayable",
      "type": "function"
    },
    {
      "inputs": [
        {
          "internalType": "address",
          "name": "user",
          "type": "address"
        }
      ],
      "name": "getCollateralValue",
      "outputs": [
        {
          "internalType": "uint256",
          "name": "",
          "type": "uint256"
        }
      ],
      "stateMutability": "view",
      "type": "function"
    },
    {
      "inputs": [
        {
          "internalType": "address",
          "name": "user",
          "type": "address"
        }
      ],
      "name": "getDebtValue",
      "outputs": [
        {
          "internalType": "uint256",
          "name": "",
          "type": "uint256"
        }
      ],
      "stateMutability": "view",
      "type": "function"
    },
    {
      "inputs": [
        {
          "internalType": "address",
          "name": "user",
          "type": "address"
        }
      ],
      "name": "getHealthFactor",
      "outputs": [
        {
          "internalType": "uint256",
          "name": "",
          "type": "uint256"
        }
      ],
      "stateMutability": "view",
      "type": "function"
    },
    {
      "inputs": [
        {
          "internalType": "address",
          "name": "user",
          "type": "address"
        }
      ],
      "name": "getBorrowingPowerUSD",
      "outputs": [
        {
          "internalType": "uint256",
          "name": "",
          "type": "uint256"
        }
      ],
      "stateMutability": "view",
      "type": "function"
    },
    {
      "inputs": [
        {
          "internalType": "uint256",
          "name": "amount",
          "type": "uint256"
        }
      ],
      "name": "deposit",
      "outputs": [],
      "stateMutability": "nonpayable",
      "type": "function"
    },
    {
      "inputs": [
        {
          "internalType": "uint256",
          "name": "amount",
          "type": "uint256"
        }
      ],
      "name": "withdraw",
      "outputs": [],
      "stateMutability": "nonpayable",
      "type": "function"
    },
    {
      "inputs": [
        {
          "internalType": "uint256",
          "name": "amount",
          "type": "uint256"
        }
      ],
      "name": "borrow",
      "outputs": [],
      "stateMutability": "nonpayable",
      "type": "function"
    },
    {
      "inputs": [
        {
          "internalType": "uint256",
          "name": "amount",
          "type": "uint256"
        }
      ],
      "name": "repay",
      "outputs": [],
      "stateMutability": "nonpayable",
      "type": "function"
    },
    {
      "inputs": [
        {
          "internalType": "address",
          "name": "borrower",
          "type": "address"
        },
        {
          "internalType": "uint256",
          "name": "repayAmountSB",
          "type": "uint256"
        }
      ],
      "name": "liquidate",
      "outputs": [],
      "stateMutability": "nonpayable",
      "type": "function"
    }
  ],
  "bytecode": "0x60e034620001fa57601f62001a7738819003918201601f19168301916001600160401b03831184841017620001fe57808492608094604052833981010312620001fa57806200005060609262000212565b6200005e6020830162000212565b906200006d6040840162000212565b6001600160a01b03949093859162000086910162000212565b16908115620001e2575f80546001600160a01b03198116841782556040519387939290918416907f8be0079c531659141344cd1fd0a4f28419497f9722a3daafe3b4186f6b6457e09080a3169081151580620001d6575b80620001ca575b15620001995750608052821660a0521660c05260405161184f90816200022882396080518181816102180152818161060c0152818161086801528181610cab0152818161114201526115bc015260a0518181816103650152818161065a01528181610789015281816107c50152818161080f01528181610e6d01528181610f7801526116ad015260c05181818161039b015281816105da01528181611179015281816113c4015281816115e301526116d40152f35b62461bcd60e51b815260206004820152600c60248201526b7a65726f206164647265737360a01b6044820152606490fd5b508484161515620000e4565b508483161515620000dd565b604051631e4fbdf760e01b81525f6004820152602490fd5b5f80fd5b634e487b7160e01b5f52604160045260245ffd5b51906001600160a01b0382168203620001fa5756fe6080806040526004361015610012575f80fd5b5f90813560e01c90816305308b9f1461145d5750806311005b071461142457806312348e96146113f35780632630c12f146113ae57806328842d4f1461134c5780632e1a7d4d146110ec578063371fd8e614610f135780634031234c14610ef5578063715018a614610e9c57806376e1958f14610e575780637b7c1f4c14610e395780638da5cb5b14610e1257806397904e4214610df3578063a1bf284014610dba578063b5c2215714610d89578063b6b55f2514610c59578063bcbaf4871461053e578063c33f59d31461051b578063c5ebeaec14610313578063d0b0c816146102e2578063d2d46d7c146102a6578063df011c4114610288578063e1f1c4a71461026b578063ebf5a90814610247578063f12f0f3914610202578063f2fde38b146101755763fe6bcd7c14610147575f80fd5b3461017257602036600319011261017257602061016a610165611479565b611718565b604051908152f35b80fd5b50346101725760203660031901126101725761018f611479565b61019761148f565b6001600160a01b039081169081156101e9575f54826bffffffffffffffffffffffff60a01b8216175f55167f8be0079c531659141344cd1fd0a4f28419497f9722a3daafe3b4186f6b6457e05f80a380f35b604051631e4fbdf760e01b815260048101849052602490fd5b50346101725780600319360112610172576040517f00000000000000000000000000000000000000000000000000000000000000006001600160a01b03168152602090f35b503461017257602036600319011261017257602061016a610266611479565b611674565b503461017257806003193601126101725760206040516127108152f35b50346101725780600319360112610172576020600154604051908152f35b50346101725760203660031901126101725760206127106102d96102d06102cb611479565b611583565b6001549061153e565b04604051908152f35b5034610172576020366003190112610172576004356102ff61148f565b61030d6127108211156114ba565b60025580f35b503461017257602080600319360112610495576004359061033582151561176f565b6127106103446102d033611583565b0461034e33611674565b60405163b3596f0760e01b81526001600160a01b037f00000000000000000000000000000000000000000000000000000000000000008116600483018190529392908590839060249082907f0000000000000000000000000000000000000000000000000000000000000000165afa9182156105105787926104d5575b50670de0b6b3a76400006103e26103e9938861153e565b04906117c1565b1161049957839033825260068352604082206104068582546117c1565b9055803b15610495576040516340c10f1960e01b8152336004820152602481018590529082908290604490829084905af1801561048a57610472575b50507fac59582e5396aca512fa873a2047e7f4c80f8f55d4a06cb34a78a0187f62719f906040519283523392a280f35b61047b906114f4565b61048657825f610442565b8280fd5b6040513d84823e3d90fd5b5080fd5b60405162461bcd60e51b815260048101839052601460248201527332bc31b2b2b239903137b93937bb903837bbb2b960611b6044820152606490fd5b91508482813d8311610509575b6104ec818361151c565b8101031261050557905190670de0b6b3a76400006103cb565b5f80fd5b503d6104e2565b6040513d89823e3d90fd5b50346101725780600319360112610172576020604051670de0b6b3a76400008152f35b503461017257604036600319011261017257610558611479565b6001600160a01b03818116916024359183151580610c4f575b15610c17578215610bde5783855260066020526040852054600560205260408620549381151580610bd5575b15610b9b576105b193612710948591611718565b1015610b6357836105c46004548461153e565b049081811115610b5b5750905b8115610b1657827f0000000000000000000000000000000000000000000000000000000000000000166040519463b3596f0760e01b808752857f0000000000000000000000000000000000000000000000000000000000000000166004880152602087602481865afa968715610b0b578a97610ad6575b506020906024604051809581938252897f00000000000000000000000000000000000000000000000000000000000000001660048301525afa918215610acb578992610a97575b5085151580610a8e575b15610a5957670de0b6b3a76400006106b1838661153e565b0490600354810191828211610a45576106cb83839261153e565b0480670de0b6b3a7640000810204670de0b6b3a76400001481151715610a455787670de0b6b3a76400006106ff9202611565565b9780891115610a3d57965b8598881061099c575b50505050808511610993575b50602061078391868852600682526040882061073c8782546117ce565b905586885260058252604088206107548682546117ce565b90556040516323b872dd60e01b8152336004820152306024820152604481019190915291829081906064820190565b038189867f0000000000000000000000000000000000000000000000000000000000000000165af18015610988576107c2918791610969575b506117db565b807f0000000000000000000000000000000000000000000000000000000000000000163b1561096557604051632770a7eb60e21b81523060048201526024810184905285908181604481837f000000000000000000000000000000000000000000000000000000000000000088165af1801561048a57610951575b505060405163a9059cbb60e01b815233600482015260248101839052906020908290604490829089907f0000000000000000000000000000000000000000000000000000000000000000165af1908115610946578591610917575b50156108d25760405191825260208201527f1f0c6615429d1cdae0dfa233abf91d3b31cdbdd82c8081389832a61e1072f1ea60403392a380f35b60405162461bcd60e51b815260206004820152601a60248201527f636f6c6c61746572616c207472616e73666572206661696c65640000000000006044820152606490fd5b610939915060203d60201161093f575b610931818361151c565b8101906117a9565b5f610898565b503d610927565b6040513d87823e3d90fd5b61095a906114f4565b61096557845f61083d565b8480fd5b610982915060203d60201161093f57610931818361151c565b5f6107bc565b6040513d88823e3d90fd5b9350602061071f565b670de0b6b3a76400009192939498506109b5908861153e565b04818102918183041490151715610a2957906109d091611565565b670de0b6b3a7640000810290808204670de0b6b3a76400001490151715610a1557906109fb91611565565b81811115610a105750805b935f808080610713565b610a06565b634e487b7160e01b88526011600452602488fd5b634e487b7160e01b89526011600452602489fd5b50879661070a565b634e487b7160e01b8b52601160045260248bfd5b60405162461bcd60e51b815260206004820152600d60248201526c1c1c9a58d9481b9bdd081cd95d609a1b6044820152606490fd5b50811515610699565b9091506020813d602011610ac3575b81610ab36020938361151c565b810103126105055751905f61068f565b3d9150610aa6565b6040513d8b823e3d90fd5b9096506020813d602011610b03575b81610af26020938361151c565b810103126105055751956020610648565b3d9150610ae5565b6040513d8c823e3d90fd5b60405162461bcd60e51b815260206004820152601b60248201527f61637475616c20726570617920616d6f756e74206973207a65726f00000000006044820152606490fd5b9050906105d1565b60405162461bcd60e51b815260206004820152601060248201526f626f72726f776572206865616c74687960801b6044820152606490fd5b60405162461bcd60e51b81526020600482015260126024820152711b9bc81919589d0bd8dbdb1b185d195c985b60721b6044820152606490fd5b5084151561059d565b60405162461bcd60e51b81526020600482015260116024820152701e995c9bc81c995c185e48185b5bdd5b9d607a1b6044820152606490fd5b60405162461bcd60e51b815260206004820152601060248201526f34b73b30b634b2103137b93937bbb2b960811b6044820152606490fd5b5033841415610571565b5034610172576020806003193601126104955760043590610c7b82151561176f565b6040516323b872dd60e01b8152336004820152306024820152604481018390528181606481876001600160a01b037f0000000000000000000000000000000000000000000000000000000000000000165af1908115610d7e578491610d61575b5015610d27577f2da466a7b24304f47e87fa2e1e5a81b9831ce54fec19055ce277ca2f39ba42c4903384526005815260408420610d198482546117c1565b90556040519283523392a280f35b6064906040519062461bcd60e51b8252600482015260136024820152721d1c985b9cd9995c919c9bdb4819985a5b1959606a1b6044820152fd5b610d789150823d841161093f57610931818361151c565b5f610cdb565b6040513d86823e3d90fd5b503461017257602036600319011261017257600435610da661148f565b610db46127108211156114ba565b60015580f35b5034610172576020366003190112610172576020906040906001600160a01b03610de2611479565b168152600583522054604051908152f35b503461017257602036600319011261017257602061016a6102cb611479565b5034610172578060031936011261017257546040516001600160a01b039091168152602090f35b50346101725780600319360112610172576020600354604051908152f35b50346101725780600319360112610172576040517f00000000000000000000000000000000000000000000000000000000000000006001600160a01b03168152602090f35b5034610172578060031936011261017257610eb561148f565b5f80546001600160a01b0319811682556001600160a01b03167f8be0079c531659141344cd1fd0a4f28419497f9722a3daafe3b4186f6b6457e08280a380f35b50346101725780600319360112610172576020600254604051908152f35b5034610172576020806003193601126104955760043590610f3582151561176f565b33835260068152604083205480156110bd57808311611089576040516323b872dd60e01b8152336004820152306024820152604481018490526001600160a01b037f00000000000000000000000000000000000000000000000000000000000000001690838160648189865af1801561098857610fb891879161107257506117db565b803b1561096557604051632770a7eb60e21b8152306004820152602481018590529085908290604490829084905af1801561094657611037575b509061101f837f0516911bcc3a0a7412a44601057c0a0a1ec628bde049a84284bc428866534488936117ce565b3385526006825260408520556040519283523392a280f35b837f0516911bcc3a0a7412a44601057c0a0a1ec628bde049a84284bc42886653448893929561106861101f936114f4565b9592935050610ff2565b6109829150853d871161093f57610931818361151c565b60405162461bcd60e51b815260048101839052600c60248201526b1c995c185e480f881919589d60a21b6044820152606490fd5b60405162461bcd60e51b81526004810183905260076024820152661b9bc81919589d60ca1b6044820152606490fd5b503461017257602080600319360112610495576004359061110e82151561176f565b33835260058152604083205482811061130f578261112b916117ce565b60405163b3596f0760e01b81526001600160a01b037f0000000000000000000000000000000000000000000000000000000000000000811660048301819052939291908390829060249082907f0000000000000000000000000000000000000000000000000000000000000000165afa9081156109885786916112dc575b506111bd670de0b6b3a7640000918361153e565b046111d46111ca33611674565b916002549061153e565b612710918281029281840414901517156112c85710611283573380865260058352604080872092909255905163a9059cbb60e01b81526004810191909152602481018490529181908390604490829088905af1918215610d7e577f7084f5476618d8e60b11ef0d7d3f06914655adb8793e28ff7f018d4c76d505d59261126091869161126c57506117db565b6040519283523392a280f35b6109829150833d851161093f57610931818361151c565b60405162461bcd60e51b815260048101839052601860248201527f776974686472617720776f756c64206d616b652048463c3100000000000000006044820152606490fd5b634e487b7160e01b87526011600452602487fd5b90508281813d8311611308575b6112f3818361151c565b8101031261130457516111bd6111a9565b8580fd5b503d6112e9565b60405162461bcd60e51b81526004810183905260156024820152741b9bdd08195b9bdd59da0818dbdb1b185d195c985b605a1b6044820152606490fd5b50346101725760203660031901126101725760043561136961148f565b6107d081116113785760035580f35b60405162461bcd60e51b815260206004820152600e60248201526d0c4dedceae640e8dede40d0d2ced60931b6044820152606490fd5b50346101725780600319360112610172576040517f00000000000000000000000000000000000000000000000000000000000000006001600160a01b03168152602090f35b50346101725760203660031901126101725760043561141061148f565b61141e6127108211156114ba565b60045580f35b5034610172576020366003190112610172576020906040906001600160a01b0361144c611479565b168152600683522054604051908152f35b9050346104955781600319360112610495576020906004548152f35b600435906001600160a01b038216820361050557565b5f546001600160a01b031633036114a257565b60405163118cdaa760e01b8152336004820152602490fd5b156114c157565b60405162461bcd60e51b815260206004820152600b60248201526a696e76616c69642062707360a81b6044820152606490fd5b67ffffffffffffffff811161150857604052565b634e487b7160e01b5f52604160045260245ffd5b90601f8019910116810190811067ffffffffffffffff82111761150857604052565b8181029291811591840414171561155157565b634e487b7160e01b5f52601160045260245ffd5b811561156f570490565b634e487b7160e01b5f52601260045260245ffd5b6001600160a01b039081165f9081526005602052604081205491821561166e5760206024916040519283809263b3596f0760e01b8252807f00000000000000000000000000000000000000000000000000000000000000001660048301527f0000000000000000000000000000000000000000000000000000000000000000165afa91821561166257809261162c575b505061162890670de0b6b3a76400009261153e565b0490565b9091506020823d821161165a575b816116476020938361151c565b8101031261017257505181611628611613565b3d915061163a565b604051903d90823e3d90fd5b50905090565b6001600160a01b039081165f9081526006602052604081205491821561166e5760206024916040519283809263b3596f0760e01b8252807f00000000000000000000000000000000000000000000000000000000000000001660048301527f0000000000000000000000000000000000000000000000000000000000000000165afa91821561166257809261162c57505061162890670de0b6b3a76400009261153e565b61172181611674565b80156117685761173361174292611583565b6127109283916002549061153e565b0491821561176157808302928304036115515761175e91611565565b90565b5050505f90565b50505f1990565b1561177657565b60405162461bcd60e51b815260206004820152600b60248201526a1e995c9bc8185b5bdd5b9d60aa1b6044820152606490fd5b90816020910312610505575180151581036105055790565b9190820180921161155157565b9190820391821161155157565b156117e257565b60405162461bcd60e51b815260206004820152600f60248201526e1d1c985b9cd9995c8819985a5b1959608a1b6044820152606490fdfea2646970667358221220191845f643b76bd977cd35a71e4ff4fa65980611d8290ad3b571dcc33dbbeb9764736f6c63430008150033",
  "immutableReferences": {
    "1008": [
      {
        "length": 32,
        "start": 536
      },
      {
        "length": 32,
        "start": 1548
      },
      {
        "length": 32,
        "start": 2152
      },
      {
        "length": 32,
        "start": 3243
      },
      {
        "length": 32,
        "start": 4418
      },
      {
        "length": 32,
        "start": 5564
      }
    ],
    "1011": [
      {
        "length": 32,
        "start": 869
      },
      {
        "length": 32,
        "start": 1626
      },
      {
        "length": 32,
        "start": 1929
      },
      {
        "length": 32,
        "start": 1989
      },
      {
        "length": 32,
        "start": 2063
      },
      {
        "length": 32,
        "start": 3693
      },
      {
        "length": 32,
        "start": 3960
      },
      {
        "length": 32,
        "start": 5805
      }
    ],
    "1014": [
      {
        "length": 32,
        "start": 923
      },
      {
        "length": 32,
        "start": 1498
      },
      {
        "length": 32,
        "start": 4473
      },
      {
        "length": 32,
        "start": 5060
      },
      {
        "length": 32,
        "start": 5603
      },
      {
        "length": 32,
        "start": 5844
      }
    ]
  },
  "source": "pragma solidity ^0.8.21;\r\n\r\nimport \"@openzeppelin/contracts/access/Ownable.sol\";\r\nimport \"@openzeppelin/contracts/token/ERC20/IERC20.sol\";\r\nimport \"./MockPriceOracle.sol\";\r\nimport \"./StableToken.sol\";\r\n\r\ncontract MoneyMarket is Ownable{\r\n\r\n    uint256 public constant BASIS_POINTS = 10000;\r\n    uint256 public constant PRICE_SCALE = 1e18;\r\n\r\n    IERC20 public immutable vlToken;\r\n    StableToken public immutable sbToken;\r\n    MockPriceOracle public immutable priceOracle;\r\n\r\n    uint256 public collateralFactor;\r\n    uint256 public liquidationThreshold;\r\n    uint256 public liquidationBonus;\r\n    uint256 public closeFactor;\r\n\r\n    mapping(address => uint256) public collateralBalance;\r\n    mapping(address => uint256) public debtBalance;\r\n\r\n    event Deposited(address indexed user, uint256 amount);\r\n    event Withdrawn(address indexed user, uint256 amount);\r\n    event Borrowed(address indexed user, uint256 amount);\r\n    event Repaid(address indexed user, uint256 amount);\r\n    event Liquidated(address indexed liquidator, address indexed borrower, uint256 repayAmountSB, uint256 seizedVL);\r\n\r\n    constructor(\r\n        address _vlToken,\r\n        address _sbToken,\r\n        address _priceOracle,\r\n        address initialOwner\r\n    )Ownable(initialOwner) {\r\n        require(_vlToken != address(0) && _sbToken != address(0) && _priceOracle != address(0), \"zero address\");\r\n        vlToken = IERC20(_vlToken);\r\n        sbToken = StableToken(_sbToken);\r\n        priceOracle = MockPriceOracle(_priceOracle);\r\n    }\r\n    \r\n    //setters\r\n    function setCollateralFactor(uint256 bps) external onlyOwner{\r\n        require(bps <= BASIS_POINTS, \"invalid bps\");\r\n        collateralFactor = bps;\r\n    }\r\n\r\n    function setLiquidationThreshold(uint256 bps) external onlyOwner {\r\n        require(bps <= BASIS_POINTS, \"invalid bps\");\r\n        liquidationThreshold = bps;\r\n    }\r\n\r\n    function setLiquidationBonus(uint256 bps) external onlyOwner {\r\n        // small sanity bound\r\n        require(bps <= 2000, \"bonus too high\"); // <=20%\r\n        liquidationBonus = bps;\r\n    }\r\n\r\n    function setCloseFactor(uint256 bps) external onlyOwner{\r\n        require(bps <= BASIS_POINTS, \"invalid bps\");\r\n        closeFactor = bps;\r\n    }\r\n\r\n    //read functions\r\n    function getCollateralValue(address user) public view returns(uint256){\r\n        uint256 coll = collateralBalance[user];\r\n        if(coll == 0) return 0;\r\n\r\n        uint256 priceVL = priceOracle.getAssetPrice(address(vlToken));\r\n        return (coll * priceVL) / PRICE_SCALE;\r\n    }\r\n\r\n    function getDebtValue(address user) public view returns (uint256){\r\n        uint256 debt = debtBalance[user];\r\n        if(debt==0) return 0;\r\n\r\n        uint256 priceSB = priceOracle.getAssetPrice(address(sbToken));\r\n        return (debt * priceSB) / PRICE_SCALE;\r\n    }\r\n\r\n\r\n    function getHealthFactor(address user) public view returns (uint256){\r\n        uint256 debtValue = getDebtValue(user);\r\n\r\n        if(debtValue == 0){\r\n            return type(uint256).max;\r\n        }\r\n\r\n        uint256 collateralValue = getCollateralValue((user));\r\n        uint256 numerator = (collateralValue * liquidationThreshold)/ BASIS_POINTS;\r\n\r\n        if(numerator==0){\r\n            return 0;\r\n        }\r\n\r\n        return (numerator * BASIS_POINTS)/debtValue;\r\n    }\r\n\r\n    function getBorrowingPowerUSD(address user) public view returns (uint256){\r\n        uint256 collUSD = getCollateralValue(user);\r\n\r\n        return (collUSD * collateralFactor)/BASIS_POINTS;\r\n    }\r\n\r\n    //users functions\r\n\r\n    function deposit(uint256 amount) external{\r\n        require(amount>0 , \"zero amount\");\r\n        require(vlToken.transferFrom(msg.sender, address(this), amount),\"transferFrom failed\");\r\n        collateralBalance[msg.sender] += amount;\r\n        emit Deposited(msg.sender, amount);\r\n    }\r\n\r\n    function withdraw(uint256 amount) external{\r\n        require(amount>0 , \"zero amount\");\r\n        uint256 userColl = collateralBalance[msg.sender];\r\n        require(userColl >= amount,\"not enough collateral\");\r\n\r\n        uint256 newColl = userColl-amount;\r\n\r\n        uint256 priceVL = priceOracle.getAssetPrice(address(vlToken));\r\n        uint256 collUSD = (newColl * priceVL) / PRICE_SCALE;\r\n        uint256 debtUSD = getDebtValue(msg.sender);\r\n\r\n        //check health factor\r\n        require(collUSD * liquidationThreshold >= debtUSD * BASIS_POINTS, \"withdraw would make HF<1\");\r\n\r\n        //update\r\n        collateralBalance[msg.sender] = newColl;\r\n        require(vlToken.transfer(msg.sender, amount),\"transfer failed\");\r\n        emit Withdrawn(msg.sender, amount);\r\n    }\r\n\r\n    function borrow(uint256 amount) external{\r\n        require(amount>0, \"zero amount\");\r\n\r\n        uint256 borrowPowerUSD = getBorrowingPowerUSD(msg.sender);\r\n        uint256 currentDebtUSD = getDebtValue(msg.sender);\r\n        uint256 priceSB = priceOracle.getAssetPrice(address(sbToken));\r\n        uint256 addedDebtUSD = (amount * priceSB) / PRICE_SCALE;\r\n\r\n        require(currentDebtUSD + addedDebtUSD <= borrowPowerUSD,\"exceeds borrow power\");\r\n\r\n        //update\r\n        debtBalance[msg.sender] += amount;\r\n        sbToken.mint(msg.sender, amount);\r\n        emit Borrowed(msg.sender, amount);\r\n    }\r\n\r\n    function repay(uint256 amount) external{\r\n        require(amount > 0, \"zero amount\");\r\n        uint256 debt = debtBalance[msg.sender];\r\n        require(debt>0, \"no debt\");\r\n        require(amount<= debt, \"repay > debt\");\r\n\r\n        //transfer SBToken to the contract\r\n        require(IERC20(address(sbToken)).transferFrom(msg.sender,address(this),amount),\"transfer failed\");\r\n        sbToken.burn(address(this),amount);\r\n\r\n        debtBalance[msg.sender] = debt-amount;\r\n        emit Repaid(msg.sender, amount);\r\n    }\r\n\r\n    //Liquidation\r\n\r\n    function liquidate(address borrower, uint256 repayAmountSB) external {\r\n        require(borrower!= address(0) && borrower != msg.sender,\"invalid borrower\");\r\n        require(repayAmountSB > 0,\"zero repay amount\");\r\n\r\n        uint256 borrowerDebt = debtBalance[borrower];\r\n        uint256 borrowerColl = collateralBalance[borrower];\r\n        require(borrowerDebt > 0 && borrowerColl >0 , \"no debt/collateral\");\r\n\r\n        require(getHealthFactor(borrower) < BASIS_POINTS,\"borrower healthy\");\r\n\r\n        uint256 maxRepay = (borrowerDebt * closeFactor) / BASIS_POINTS;\r\n        uint256 actualRepayAmountSB = (repayAmountSB > maxRepay) ? maxRepay : repayAmountSB;\r\n        require(actualRepayAmountSB>0 , \"actual repay amount is zero\");\r\n\r\n        uint256 priceVL = priceOracle.getAssetPrice(address(vlToken));\r\n        uint256 priceSB = priceOracle.getAssetPrice(address(sbToken));\r\n        require(priceVL > 0 && priceSB > 0,\"price not set\");\r\n\r\n        uint256 repayValueUSD = (actualRepayAmountSB * priceSB)/PRICE_SCALE;\r\n        uint256 bonusMultiplier = BASIS_POINTS + liquidationBonus;\r\n\r\n        uint256 theoreticalCollClaimUSD = (repayValueUSD * bonusMultiplier) / BASIS_POINTS;\r\n        uint256 theoreticalVL = (theoreticalCollClaimUSD * PRICE_SCALE) / priceVL;\r\n\r\n        uint256 seizedVL = (theoreticalVL > borrowerColl) ? borrowerColl : theoreticalVL;\r\n\r\n        uint256 debtReductionSB = actualRepayAmountSB;\r\n\r\n        if(seizedVL < theoreticalVL){\r\n            uint256 actualCollateralUSD = (seizedVL * priceVL) / PRICE_SCALE;\r\n            uint256 debtReductionUSD = (actualCollateralUSD * BASIS_POINTS) / bonusMultiplier;\r\n            uint256 debtReductionSB_adj = (debtReductionUSD * PRICE_SCALE) / priceSB;\r\n\r\n            debtReductionSB = (debtReductionSB_adj > actualRepayAmountSB) ? actualRepayAmountSB : debtReductionSB_adj;\r\n\r\n            \r\n        }\r\n        if(debtReductionSB > borrowerDebt){\r\n                debtReductionSB = borrowerDebt;\r\n        }\r\n\r\n        debtBalance[borrower] -= debtReductionSB;\r\n        collateralBalance[borrower] -= seizedVL;\r\n\r\n   \r\n        require(IERC20(address(sbToken)).transferFrom(msg.sender, address(this), actualRepayAmountSB), \"transfer failed\");\r\n    \r\n        sbToken.burn(address(this), debtReductionSB);\r\n\r\n    \r\n        require(vlToken.transfer(msg.sender, seizedVL), \"collateral transfer failed\");\r\n\r\n        emit Liquidated(msg.sender, borrower, debtReductionSB, seizedVL);\r\n\r\n    }\r\n\r\n\r\n}",
  "sourcePath": "D:\\my-dapp\\contracts\\MoneyMarket.sol",
  "compiler": {
    "name": "solc",
    "version": "0.8.21+commit.d9974bed.Emscripten.clang"
  },
  "schemaVersion": "3.4.16",
  "updatedAt": "2025-10-24T03:08:14.362Z",
  "devdoc": {
    "errors": {
      "OwnableInvalidOwner(address)": [
        {
          "details": "The owner is not a valid owner account. (eg. `address(0)`)"
        }
      ],
      "OwnableUnauthorizedAccount(address)": [
        {
          "details": "The caller account is not authorized to perform an operation."
        }
      ]
    },
    "kind": "dev",
    "methods": {
      "owner()": {
        "details": "Returns the address of the current owner."
      },
      "renounceOwnership()": {
        "details": "Leaves the contract without owner. It will not be possible to call `onlyOwner` functions. Can only be called by the current owner. NOTE: Renouncing ownership will leave the contract without an owner, thereby disabling any functionality that is only available to the owner."
      },
      "transferOwnership(address)": {
        "details": "Transfers ownership of the contract to a new account (`newOwner`). Can only be called by the current owner."
      }
    },
    "version": 1
  },
  "userdoc": {
    "kind": "user",
    "methods": {},
    "version": 1
  }
}