{
  "contractName": "MoneyMarket",
  "abi": [
    {
      "inputs": [
        {
          "internalType": "address",
          "name": "_vlToken",
          "type": "address"
        },
        {
          "internalType": "address",
          "name": "_sbToken",
          "type": "address"
        },
        {
          "internalType": "address",
          "name": "_priceOracle",
          "type": "address"
        },
        {
          "internalType": "address",
          "name": "initialOwner",
          "type": "address"
        }
      ],
      "stateMutability": "nonpayable",
      "type": "constructor"
    },
    {
      "inputs": [
        {
          "internalType": "address",
          "name": "owner",
          "type": "address"
        }
      ],
      "name": "OwnableInvalidOwner",
      "type": "error"
    },
    {
      "inputs": [
        {
          "internalType": "address",
          "name": "account",
          "type": "address"
        }
      ],
      "name": "OwnableUnauthorizedAccount",
      "type": "error"
    },
    {
      "anonymous": false,
      "inputs": [
        {
          "indexed": true,
          "internalType": "address",
          "name": "user",
          "type": "address"
        },
        {
          "indexed": false,
          "internalType": "uint256",
          "name": "amount",
          "type": "uint256"
        }
      ],
      "name": "Borrowed",
      "type": "event"
    },
    {
      "anonymous": false,
      "inputs": [
        {
          "indexed": true,
          "internalType": "address",
          "name": "user",
          "type": "address"
        },
        {
          "indexed": false,
          "internalType": "uint256",
          "name": "amount",
          "type": "uint256"
        }
      ],
      "name": "Deposited",
      "type": "event"
    },
    {
      "anonymous": false,
      "inputs": [
        {
          "indexed": true,
          "internalType": "address",
          "name": "liquidator",
          "type": "address"
        },
        {
          "indexed": true,
          "internalType": "address",
          "name": "borrower",
          "type": "address"
        },
        {
          "indexed": false,
          "internalType": "uint256",
          "name": "repayAmountSB",
          "type": "uint256"
        },
        {
          "indexed": false,
          "internalType": "uint256",
          "name": "seizedVL",
          "type": "uint256"
        }
      ],
      "name": "Liquidated",
      "type": "event"
    },
    {
      "anonymous": false,
      "inputs": [
        {
          "indexed": true,
          "internalType": "address",
          "name": "previousOwner",
          "type": "address"
        },
        {
          "indexed": true,
          "internalType": "address",
          "name": "newOwner",
          "type": "address"
        }
      ],
      "name": "OwnershipTransferred",
      "type": "event"
    },
    {
      "anonymous": false,
      "inputs": [
        {
          "indexed": true,
          "internalType": "address",
          "name": "user",
          "type": "address"
        },
        {
          "indexed": false,
          "internalType": "uint256",
          "name": "amount",
          "type": "uint256"
        }
      ],
      "name": "Repaid",
      "type": "event"
    },
    {
      "anonymous": false,
      "inputs": [
        {
          "indexed": true,
          "internalType": "address",
          "name": "user",
          "type": "address"
        },
        {
          "indexed": false,
          "internalType": "uint256",
          "name": "amount",
          "type": "uint256"
        }
      ],
      "name": "Withdrawn",
      "type": "event"
    },
    {
      "inputs": [],
      "name": "BASIS_POINTS",
      "outputs": [
        {
          "internalType": "uint256",
          "name": "",
          "type": "uint256"
        }
      ],
      "stateMutability": "view",
      "type": "function"
    },
    {
      "inputs": [],
      "name": "PRICE_SCALE",
      "outputs": [
        {
          "internalType": "uint256",
          "name": "",
          "type": "uint256"
        }
      ],
      "stateMutability": "view",
      "type": "function"
    },
    {
      "inputs": [],
      "name": "closeFactor",
      "outputs": [
        {
          "internalType": "uint256",
          "name": "",
          "type": "uint256"
        }
      ],
      "stateMutability": "view",
      "type": "function"
    },
    {
      "inputs": [
        {
          "internalType": "address",
          "name": "",
          "type": "address"
        }
      ],
      "name": "collateralBalance",
      "outputs": [
        {
          "internalType": "uint256",
          "name": "",
          "type": "uint256"
        }
      ],
      "stateMutability": "view",
      "type": "function"
    },
    {
      "inputs": [],
      "name": "collateralFactor",
      "outputs": [
        {
          "internalType": "uint256",
          "name": "",
          "type": "uint256"
        }
      ],
      "stateMutability": "view",
      "type": "function"
    },
    {
      "inputs": [
        {
          "internalType": "address",
          "name": "",
          "type": "address"
        }
      ],
      "name": "debtBalance",
      "outputs": [
        {
          "internalType": "uint256",
          "name": "",
          "type": "uint256"
        }
      ],
      "stateMutability": "view",
      "type": "function"
    },
    {
      "inputs": [],
      "name": "liquidationBonus",
      "outputs": [
        {
          "internalType": "uint256",
          "name": "",
          "type": "uint256"
        }
      ],
      "stateMutability": "view",
      "type": "function"
    },
    {
      "inputs": [],
      "name": "liquidationThreshold",
      "outputs": [
        {
          "internalType": "uint256",
          "name": "",
          "type": "uint256"
        }
      ],
      "stateMutability": "view",
      "type": "function"
    },
    {
      "inputs": [],
      "name": "owner",
      "outputs": [
        {
          "internalType": "address",
          "name": "",
          "type": "address"
        }
      ],
      "stateMutability": "view",
      "type": "function"
    },
    {
      "inputs": [],
      "name": "priceOracle",
      "outputs": [
        {
          "internalType": "contract MockPriceOracle",
          "name": "",
          "type": "address"
        }
      ],
      "stateMutability": "view",
      "type": "function"
    },
    {
      "inputs": [],
      "name": "renounceOwnership",
      "outputs": [],
      "stateMutability": "nonpayable",
      "type": "function"
    },
    {
      "inputs": [],
      "name": "sbToken",
      "outputs": [
        {
          "internalType": "contract StableToken",
          "name": "",
          "type": "address"
        }
      ],
      "stateMutability": "view",
      "type": "function"
    },
    {
      "inputs": [
        {
          "internalType": "address",
          "name": "newOwner",
          "type": "address"
        }
      ],
      "name": "transferOwnership",
      "outputs": [],
      "stateMutability": "nonpayable",
      "type": "function"
    },
    {
      "inputs": [],
      "name": "vlToken",
      "outputs": [
        {
          "internalType": "contract IERC20",
          "name": "",
          "type": "address"
        }
      ],
      "stateMutability": "view",
      "type": "function"
    },
    {
      "inputs": [
        {
          "internalType": "uint256",
          "name": "bps",
          "type": "uint256"
        }
      ],
      "name": "setCollateralFactor",
      "outputs": [],
      "stateMutability": "nonpayable",
      "type": "function"
    },
    {
      "inputs": [
        {
          "internalType": "uint256",
          "name": "bps",
          "type": "uint256"
        }
      ],
      "name": "setLiquidationThreshold",
      "outputs": [],
      "stateMutability": "nonpayable",
      "type": "function"
    },
    {
      "inputs": [
        {
          "internalType": "uint256",
          "name": "bps",
          "type": "uint256"
        }
      ],
      "name": "setCloseFactor",
      "outputs": [],
      "stateMutability": "nonpayable",
      "type": "function"
    },
    {
      "inputs": [
        {
          "internalType": "address",
          "name": "user",
          "type": "address"
        }
      ],
      "name": "getCollateralValue",
      "outputs": [
        {
          "internalType": "uint256",
          "name": "",
          "type": "uint256"
        }
      ],
      "stateMutability": "view",
      "type": "function"
    },
    {
      "inputs": [
        {
          "internalType": "address",
          "name": "user",
          "type": "address"
        }
      ],
      "name": "getDebtValue",
      "outputs": [
        {
          "internalType": "uint256",
          "name": "",
          "type": "uint256"
        }
      ],
      "stateMutability": "view",
      "type": "function"
    },
    {
      "inputs": [
        {
          "internalType": "address",
          "name": "user",
          "type": "address"
        }
      ],
      "name": "getHealthFactor",
      "outputs": [
        {
          "internalType": "uint256",
          "name": "",
          "type": "uint256"
        }
      ],
      "stateMutability": "view",
      "type": "function"
    },
    {
      "inputs": [
        {
          "internalType": "address",
          "name": "user",
          "type": "address"
        }
      ],
      "name": "getBorrowingPowerUSD",
      "outputs": [
        {
          "internalType": "uint256",
          "name": "",
          "type": "uint256"
        }
      ],
      "stateMutability": "view",
      "type": "function"
    },
    {
      "inputs": [
        {
          "internalType": "uint256",
          "name": "amount",
          "type": "uint256"
        }
      ],
      "name": "deposit",
      "outputs": [],
      "stateMutability": "nonpayable",
      "type": "function"
    },
    {
      "inputs": [
        {
          "internalType": "uint256",
          "name": "amount",
          "type": "uint256"
        }
      ],
      "name": "withdraw",
      "outputs": [],
      "stateMutability": "nonpayable",
      "type": "function"
    },
    {
      "inputs": [
        {
          "internalType": "uint256",
          "name": "amount",
          "type": "uint256"
        }
      ],
      "name": "borrow",
      "outputs": [],
      "stateMutability": "nonpayable",
      "type": "function"
    },
    {
      "inputs": [
        {
          "internalType": "uint256",
          "name": "amount",
          "type": "uint256"
        }
      ],
      "name": "repay",
      "outputs": [],
      "stateMutability": "nonpayable",
      "type": "function"
    },
    {
      "inputs": [
        {
          "internalType": "address",
          "name": "borrower",
          "type": "address"
        },
        {
          "internalType": "uint256",
          "name": "repayAmountSB",
          "type": "uint256"
        }
      ],
      "name": "liquidate",
      "outputs": [],
      "stateMutability": "nonpayable",
      "type": "function"
    }
  ],
  "bytecode": "0x60e034620001fa57601f62001a3b38819003918201601f19168301916001600160401b03831184841017620001fe57808492608094604052833981010312620001fa57806200005060609262000212565b6200005e6020830162000212565b906200006d6040840162000212565b6001600160a01b03949093859162000086910162000212565b16908115620001e2575f80546001600160a01b03198116841782556040519387939290918416907f8be0079c531659141344cd1fd0a4f28419497f9722a3daafe3b4186f6b6457e09080a3169081151580620001d6575b80620001ca575b15620001995750608052821660a0521660c052604051611813908162000228823960805181818161020d015281816106320152818161088e01528181610cd1015281816111680152611580015260a05181818161038b01528181610680015281816107af015281816107eb0152818161083501528181610e9301528181610f9e0152611671015260c0518181816103c1015281816106000152818161119f01528181611388015281816115a701526116980152f35b62461bcd60e51b815260206004820152600c60248201526b7a65726f206164647265737360a01b6044820152606490fd5b508484161515620000e4565b508483161515620000dd565b604051631e4fbdf760e01b81525f6004820152602490fd5b5f80fd5b634e487b7160e01b5f52604160045260245ffd5b51906001600160a01b0382168203620001fa5756fe6080806040526004361015610012575f80fd5b5f90813560e01c90816305308b9f146114215750806311005b07146113e857806312348e96146113b75780632630c12f146113725780632e1a7d4d14611112578063371fd8e614610f395780634031234c14610f1b578063715018a614610ec257806376e1958f14610e7d5780637b7c1f4c14610e5f5780638da5cb5b14610e3857806397904e4214610e19578063a1bf284014610de0578063b5c2215714610daf578063b6b55f2514610c7f578063bcbaf48714610564578063c33f59d314610541578063c5ebeaec14610339578063d0b0c816146102d7578063d2d46d7c1461029b578063df011c411461027d578063e1f1c4a714610260578063ebf5a9081461023c578063f12f0f39146101f7578063f2fde38b1461016a5763fe6bcd7c1461013c575f80fd5b3461016757602036600319011261016757602061015f61015a61143d565b6116dc565b604051908152f35b80fd5b50346101675760203660031901126101675761018461143d565b61018c611453565b6001600160a01b039081169081156101de575f54826bffffffffffffffffffffffff60a01b8216175f55167f8be0079c531659141344cd1fd0a4f28419497f9722a3daafe3b4186f6b6457e05f80a380f35b604051631e4fbdf760e01b815260048101849052602490fd5b50346101675780600319360112610167576040517f00000000000000000000000000000000000000000000000000000000000000006001600160a01b03168152602090f35b503461016757602036600319011261016757602061015f61025b61143d565b611638565b503461016757806003193601126101675760206040516127108152f35b50346101675780600319360112610167576020600154604051908152f35b50346101675760203660031901126101675760206127106102ce6102c56102c061143d565b611547565b60015490611502565b04604051908152f35b5034610167576020366003190112610167576004356102f4611453565b6107d081116103035760035580f35b60405162461bcd60e51b815260206004820152600e60248201526d0c4dedceae640e8dede40d0d2ced60931b6044820152606490fd5b5034610167576020806003193601126104bb576004359061035b821515611733565b61271061036a6102c533611547565b0461037433611638565b60405163b3596f0760e01b81526001600160a01b037f00000000000000000000000000000000000000000000000000000000000000008116600483018190529392908590839060249082907f0000000000000000000000000000000000000000000000000000000000000000165afa9182156105365787926104fb575b50670de0b6b3a764000061040861040f9388611502565b0490611785565b116104bf578390338252600683526040822061042c858254611785565b9055803b156104bb576040516340c10f1960e01b8152336004820152602481018590529082908290604490829084905af180156104b057610498575b50507fac59582e5396aca512fa873a2047e7f4c80f8f55d4a06cb34a78a0187f62719f906040519283523392a280f35b6104a1906114b8565b6104ac57825f610468565b8280fd5b6040513d84823e3d90fd5b5080fd5b60405162461bcd60e51b815260048101839052601460248201527332bc31b2b2b239903137b93937bb903837bbb2b960611b6044820152606490fd5b91508482813d831161052f575b61051281836114e0565b8101031261052b57905190670de0b6b3a76400006103f1565b5f80fd5b503d610508565b6040513d89823e3d90fd5b50346101675780600319360112610167576020604051670de0b6b3a76400008152f35b50346101675760403660031901126101675761057e61143d565b6001600160a01b03818116916024359183151580610c75575b15610c3d578215610c045783855260066020526040852054600560205260408620549381151580610bfb575b15610bc1576105d7936127109485916116dc565b1015610b8957836105ea60045484611502565b049081811115610b815750905b8115610b3c57827f0000000000000000000000000000000000000000000000000000000000000000166040519463b3596f0760e01b808752857f0000000000000000000000000000000000000000000000000000000000000000166004880152602087602481865afa968715610b31578a97610afc575b506020906024604051809581938252897f00000000000000000000000000000000000000000000000000000000000000001660048301525afa918215610af1578992610abd575b5085151580610ab4575b15610a7f57670de0b6b3a76400006106d78386611502565b0490600354810191828211610a6b576106f1838392611502565b0480670de0b6b3a7640000810204670de0b6b3a76400001481151715610a6b5787670de0b6b3a76400006107259202611529565b9780891115610a6357965b859888106109c2575b505050508085116109b9575b5060206107a9918688526006825260408820610762878254611792565b9055868852600582526040882061077a868254611792565b90556040516323b872dd60e01b8152336004820152306024820152604481019190915291829081906064820190565b038189867f0000000000000000000000000000000000000000000000000000000000000000165af180156109ae576107e891879161098f575b5061179f565b807f0000000000000000000000000000000000000000000000000000000000000000163b1561098b57604051632770a7eb60e21b81523060048201526024810184905285908181604481837f000000000000000000000000000000000000000000000000000000000000000088165af180156104b057610977575b505060405163a9059cbb60e01b815233600482015260248101839052906020908290604490829089907f0000000000000000000000000000000000000000000000000000000000000000165af190811561096c57859161093d575b50156108f85760405191825260208201527f1f0c6615429d1cdae0dfa233abf91d3b31cdbdd82c8081389832a61e1072f1ea60403392a380f35b60405162461bcd60e51b815260206004820152601a60248201527f636f6c6c61746572616c207472616e73666572206661696c65640000000000006044820152606490fd5b61095f915060203d602011610965575b61095781836114e0565b81019061176d565b5f6108be565b503d61094d565b6040513d87823e3d90fd5b610980906114b8565b61098b57845f610863565b8480fd5b6109a8915060203d6020116109655761095781836114e0565b5f6107e2565b6040513d88823e3d90fd5b93506020610745565b670de0b6b3a76400009192939498506109db9088611502565b04818102918183041490151715610a4f57906109f691611529565b670de0b6b3a7640000810290808204670de0b6b3a76400001490151715610a3b5790610a2191611529565b81811115610a365750805b935f808080610739565b610a2c565b634e487b7160e01b88526011600452602488fd5b634e487b7160e01b89526011600452602489fd5b508796610730565b634e487b7160e01b8b52601160045260248bfd5b60405162461bcd60e51b815260206004820152600d60248201526c1c1c9a58d9481b9bdd081cd95d609a1b6044820152606490fd5b508115156106bf565b9091506020813d602011610ae9575b81610ad9602093836114e0565b8101031261052b5751905f6106b5565b3d9150610acc565b6040513d8b823e3d90fd5b9096506020813d602011610b29575b81610b18602093836114e0565b8101031261052b575195602061066e565b3d9150610b0b565b6040513d8c823e3d90fd5b60405162461bcd60e51b815260206004820152601b60248201527f61637475616c20726570617920616d6f756e74206973207a65726f00000000006044820152606490fd5b9050906105f7565b60405162461bcd60e51b815260206004820152601060248201526f626f72726f776572206865616c74687960801b6044820152606490fd5b60405162461bcd60e51b81526020600482015260126024820152711b9bc81919589d0bd8dbdb1b185d195c985b60721b6044820152606490fd5b508415156105c3565b60405162461bcd60e51b81526020600482015260116024820152701e995c9bc81c995c185e48185b5bdd5b9d607a1b6044820152606490fd5b60405162461bcd60e51b815260206004820152601060248201526f34b73b30b634b2103137b93937bbb2b960811b6044820152606490fd5b5033841415610597565b5034610167576020806003193601126104bb5760043590610ca1821515611733565b6040516323b872dd60e01b8152336004820152306024820152604481018390528181606481876001600160a01b037f0000000000000000000000000000000000000000000000000000000000000000165af1908115610da4578491610d87575b5015610d4d577f2da466a7b24304f47e87fa2e1e5a81b9831ce54fec19055ce277ca2f39ba42c4903384526005815260408420610d3f848254611785565b90556040519283523392a280f35b6064906040519062461bcd60e51b8252600482015260136024820152721d1c985b9cd9995c919c9bdb4819985a5b1959606a1b6044820152fd5b610d9e9150823d84116109655761095781836114e0565b5f610d01565b6040513d86823e3d90fd5b503461016757602036600319011261016757600435610dcc611453565b610dda61271082111561147e565b60015580f35b5034610167576020366003190112610167576020906040906001600160a01b03610e0861143d565b168152600583522054604051908152f35b503461016757602036600319011261016757602061015f6102c061143d565b5034610167578060031936011261016757546040516001600160a01b039091168152602090f35b50346101675780600319360112610167576020600354604051908152f35b50346101675780600319360112610167576040517f00000000000000000000000000000000000000000000000000000000000000006001600160a01b03168152602090f35b5034610167578060031936011261016757610edb611453565b5f80546001600160a01b0319811682556001600160a01b03167f8be0079c531659141344cd1fd0a4f28419497f9722a3daafe3b4186f6b6457e08280a380f35b50346101675780600319360112610167576020600254604051908152f35b5034610167576020806003193601126104bb5760043590610f5b821515611733565b33835260068152604083205480156110e3578083116110af576040516323b872dd60e01b8152336004820152306024820152604481018490526001600160a01b037f00000000000000000000000000000000000000000000000000000000000000001690838160648189865af180156109ae57610fde918791611098575061179f565b803b1561098b57604051632770a7eb60e21b8152306004820152602481018590529085908290604490829084905af1801561096c5761105d575b5090611045837f0516911bcc3a0a7412a44601057c0a0a1ec628bde049a84284bc42886653448893611792565b3385526006825260408520556040519283523392a280f35b837f0516911bcc3a0a7412a44601057c0a0a1ec628bde049a84284bc42886653448893929561108e611045936114b8565b9592935050611018565b6109a89150853d87116109655761095781836114e0565b60405162461bcd60e51b815260048101839052600c60248201526b1c995c185e480f881919589d60a21b6044820152606490fd5b60405162461bcd60e51b81526004810183905260076024820152661b9bc81919589d60ca1b6044820152606490fd5b5034610167576020806003193601126104bb5760043590611134821515611733565b338352600581526040832054828110611335578261115191611792565b60405163b3596f0760e01b81526001600160a01b037f0000000000000000000000000000000000000000000000000000000000000000811660048301819052939291908390829060249082907f0000000000000000000000000000000000000000000000000000000000000000165afa9081156109ae578691611302575b506111e3670de0b6b3a76400009183611502565b046111fa6111f033611638565b9160025490611502565b612710918281029281840414901517156112ee57106112a9573380865260058352604080872092909255905163a9059cbb60e01b81526004810191909152602481018490529181908390604490829088905af1918215610da4577f7084f5476618d8e60b11ef0d7d3f06914655adb8793e28ff7f018d4c76d505d592611286918691611292575061179f565b6040519283523392a280f35b6109a89150833d85116109655761095781836114e0565b60405162461bcd60e51b815260048101839052601860248201527f776974686472617720776f756c64206d616b652048463c3100000000000000006044820152606490fd5b634e487b7160e01b87526011600452602487fd5b90508281813d831161132e575b61131981836114e0565b8101031261132a57516111e36111cf565b8580fd5b503d61130f565b60405162461bcd60e51b81526004810183905260156024820152741b9bdd08195b9bdd59da0818dbdb1b185d195c985b605a1b6044820152606490fd5b50346101675780600319360112610167576040517f00000000000000000000000000000000000000000000000000000000000000006001600160a01b03168152602090f35b5034610167576020366003190112610167576004356113d4611453565b6113e261271082111561147e565b60045580f35b5034610167576020366003190112610167576020906040906001600160a01b0361141061143d565b168152600683522054604051908152f35b9050346104bb57816003193601126104bb576020906004548152f35b600435906001600160a01b038216820361052b57565b5f546001600160a01b0316330361146657565b60405163118cdaa760e01b8152336004820152602490fd5b1561148557565b60405162461bcd60e51b815260206004820152600b60248201526a696e76616c69642062707360a81b6044820152606490fd5b67ffffffffffffffff81116114cc57604052565b634e487b7160e01b5f52604160045260245ffd5b90601f8019910116810190811067ffffffffffffffff8211176114cc57604052565b8181029291811591840414171561151557565b634e487b7160e01b5f52601160045260245ffd5b8115611533570490565b634e487b7160e01b5f52601260045260245ffd5b6001600160a01b039081165f908152600560205260408120549182156116325760206024916040519283809263b3596f0760e01b8252807f00000000000000000000000000000000000000000000000000000000000000001660048301527f0000000000000000000000000000000000000000000000000000000000000000165afa9182156116265780926115f0575b50506115ec90670de0b6b3a764000092611502565b0490565b9091506020823d821161161e575b8161160b602093836114e0565b81010312610167575051816115ec6115d7565b3d91506115fe565b604051903d90823e3d90fd5b50905090565b6001600160a01b039081165f908152600660205260408120549182156116325760206024916040519283809263b3596f0760e01b8252807f00000000000000000000000000000000000000000000000000000000000000001660048301527f0000000000000000000000000000000000000000000000000000000000000000165afa9182156116265780926115f05750506115ec90670de0b6b3a764000092611502565b6116e581611638565b801561172c576116f761170692611547565b61271092839160025490611502565b0491821561172557808302928304036115155761172291611529565b90565b5050505f90565b50505f1990565b1561173a57565b60405162461bcd60e51b815260206004820152600b60248201526a1e995c9bc8185b5bdd5b9d60aa1b6044820152606490fd5b9081602091031261052b5751801515810361052b5790565b9190820180921161151557565b9190820391821161151557565b156117a657565b60405162461bcd60e51b815260206004820152600f60248201526e1d1c985b9cd9995c8819985a5b1959608a1b6044820152606490fdfea26469706673582212202953f864094eec3481a65a95a45b5c94965f8e22e94d67ff40b9c7896c906d8564736f6c63430008150033",
  "immutableReferences": {
    "1008": [
      {
        "length": 32,
        "start": 525
      },
      {
        "length": 32,
        "start": 1586
      },
      {
        "length": 32,
        "start": 2190
      },
      {
        "length": 32,
        "start": 3281
      },
      {
        "length": 32,
        "start": 4456
      },
      {
        "length": 32,
        "start": 5504
      }
    ],
    "1011": [
      {
        "length": 32,
        "start": 907
      },
      {
        "length": 32,
        "start": 1664
      },
      {
        "length": 32,
        "start": 1967
      },
      {
        "length": 32,
        "start": 2027
      },
      {
        "length": 32,
        "start": 2101
      },
      {
        "length": 32,
        "start": 3731
      },
      {
        "length": 32,
        "start": 3998
      },
      {
        "length": 32,
        "start": 5745
      }
    ],
    "1014": [
      {
        "length": 32,
        "start": 961
      },
      {
        "length": 32,
        "start": 1536
      },
      {
        "length": 32,
        "start": 4511
      },
      {
        "length": 32,
        "start": 5000
      },
      {
        "length": 32,
        "start": 5543
      },
      {
        "length": 32,
        "start": 5784
      }
    ]
  },
  "source": "pragma solidity ^0.8.21;\r\n\r\nimport \"@openzeppelin/contracts/access/Ownable.sol\";\r\nimport \"@openzeppelin/contracts/token/ERC20/IERC20.sol\";\r\nimport \"./MockPriceOracle.sol\";\r\nimport \"./StableToken.sol\";\r\n\r\ncontract MoneyMarket is Ownable{\r\n\r\n    uint256 public constant BASIS_POINTS = 10000;\r\n    uint256 public constant PRICE_SCALE = 1e18;\r\n\r\n    IERC20 public immutable vlToken;\r\n    StableToken public immutable sbToken;\r\n    MockPriceOracle public immutable priceOracle;\r\n\r\n    uint256 public collateralFactor;\r\n    uint256 public liquidationThreshold;\r\n    uint256 public liquidationBonus;\r\n    uint256 public closeFactor;\r\n\r\n    mapping(address => uint256) public collateralBalance;\r\n    mapping(address => uint256) public debtBalance;\r\n\r\n    event Deposited(address indexed user, uint256 amount);\r\n    event Withdrawn(address indexed user, uint256 amount);\r\n    event Borrowed(address indexed user, uint256 amount);\r\n    event Repaid(address indexed user, uint256 amount);\r\n    event Liquidated(address indexed liquidator, address indexed borrower, uint256 repayAmountSB, uint256 seizedVL);\r\n\r\n    constructor(\r\n        address _vlToken,\r\n        address _sbToken,\r\n        address _priceOracle,\r\n        address initialOwner\r\n    )Ownable(initialOwner) {\r\n        require(_vlToken != address(0) && _sbToken != address(0) && _priceOracle != address(0), \"zero address\");\r\n        vlToken = IERC20(_vlToken);\r\n        sbToken = StableToken(_sbToken);\r\n        priceOracle = MockPriceOracle(_priceOracle);\r\n    }\r\n    \r\n    //setters\r\n    function setCollateralFactor(uint256 bps) external onlyOwner{\r\n        require(bps <= BASIS_POINTS, \"invalid bps\");\r\n        collateralFactor = bps;\r\n    }\r\n\r\n    function setLiquidationThreshold(uint256 bps) external onlyOwner{\r\n        require(bps <= 2000, \"bonus too high\"); // <= 20%\r\n        liquidationBonus = bps;\r\n    }\r\n\r\n    function setCloseFactor(uint256 bps) external onlyOwner{\r\n        require(bps <= BASIS_POINTS, \"invalid bps\");\r\n        closeFactor = bps;\r\n    }\r\n\r\n    //read functions\r\n    function getCollateralValue(address user) public view returns(uint256){\r\n        uint256 coll = collateralBalance[user];\r\n        if(coll == 0) return 0;\r\n\r\n        uint256 priceVL = priceOracle.getAssetPrice(address(vlToken));\r\n        return (coll * priceVL) / PRICE_SCALE;\r\n    }\r\n\r\n    function getDebtValue(address user) public view returns (uint256){\r\n        uint256 debt = debtBalance[user];\r\n        if(debt==0) return 0;\r\n\r\n        uint256 priceSB = priceOracle.getAssetPrice(address(sbToken));\r\n        return (debt * priceSB) / PRICE_SCALE;\r\n    }\r\n\r\n\r\n    function getHealthFactor(address user) public view returns (uint256){\r\n        uint256 debtValue = getDebtValue(user);\r\n\r\n        if(debtValue == 0){\r\n            return type(uint256).max;\r\n        }\r\n\r\n        uint256 collateralValue = getCollateralValue((user));\r\n        uint256 numerator = (collateralValue * liquidationThreshold)/ BASIS_POINTS;\r\n\r\n        if(numerator==0){\r\n            return 0;\r\n        }\r\n\r\n        return (numerator * BASIS_POINTS)/debtValue;\r\n    }\r\n\r\n    function getBorrowingPowerUSD(address user) public view returns (uint256){\r\n        uint256 collUSD = getCollateralValue(user);\r\n\r\n        return (collUSD * collateralFactor)/BASIS_POINTS;\r\n    }\r\n\r\n    //users functions\r\n\r\n    function deposit(uint256 amount) external{\r\n        require(amount>0 , \"zero amount\");\r\n        require(vlToken.transferFrom(msg.sender, address(this), amount),\"transferFrom failed\");\r\n        collateralBalance[msg.sender] += amount;\r\n        emit Deposited(msg.sender, amount);\r\n    }\r\n\r\n    function withdraw(uint256 amount) external{\r\n        require(amount>0 , \"zero amount\");\r\n        uint256 userColl = collateralBalance[msg.sender];\r\n        require(userColl >= amount,\"not enough collateral\");\r\n\r\n        uint256 newColl = userColl-amount;\r\n\r\n        uint256 priceVL = priceOracle.getAssetPrice(address(vlToken));\r\n        uint256 collUSD = (newColl * priceVL) / PRICE_SCALE;\r\n        uint256 debtUSD = getDebtValue(msg.sender);\r\n\r\n        //check health factor\r\n        require(collUSD * liquidationThreshold >= debtUSD * BASIS_POINTS, \"withdraw would make HF<1\");\r\n\r\n        //update\r\n        collateralBalance[msg.sender] = newColl;\r\n        require(vlToken.transfer(msg.sender, amount),\"transfer failed\");\r\n        emit Withdrawn(msg.sender, amount);\r\n    }\r\n\r\n    function borrow(uint256 amount) external{\r\n        require(amount>0, \"zero amount\");\r\n\r\n        uint256 borrowPowerUSD = getBorrowingPowerUSD(msg.sender);\r\n        uint256 currentDebtUSD = getDebtValue(msg.sender);\r\n        uint256 priceSB = priceOracle.getAssetPrice(address(sbToken));\r\n        uint256 addedDebtUSD = (amount * priceSB) / PRICE_SCALE;\r\n\r\n        require(currentDebtUSD + addedDebtUSD <= borrowPowerUSD,\"exceeds borrow power\");\r\n\r\n        //update\r\n        debtBalance[msg.sender] += amount;\r\n        sbToken.mint(msg.sender, amount);\r\n        emit Borrowed(msg.sender, amount);\r\n    }\r\n\r\n    function repay(uint256 amount) external{\r\n        require(amount > 0, \"zero amount\");\r\n        uint256 debt = debtBalance[msg.sender];\r\n        require(debt>0, \"no debt\");\r\n        require(amount<= debt, \"repay > debt\");\r\n\r\n        //transfer SBToken to the contract\r\n        require(IERC20(address(sbToken)).transferFrom(msg.sender,address(this),amount),\"transfer failed\");\r\n        sbToken.burn(address(this),amount);\r\n\r\n        debtBalance[msg.sender] = debt-amount;\r\n        emit Repaid(msg.sender, amount);\r\n    }\r\n\r\n    //Liquidation\r\n\r\n    function liquidate(address borrower, uint256 repayAmountSB) external {\r\n        require(borrower!= address(0) && borrower != msg.sender,\"invalid borrower\");\r\n        require(repayAmountSB > 0,\"zero repay amount\");\r\n\r\n        uint256 borrowerDebt = debtBalance[borrower];\r\n        uint256 borrowerColl = collateralBalance[borrower];\r\n        require(borrowerDebt > 0 && borrowerColl >0 , \"no debt/collateral\");\r\n\r\n        require(getHealthFactor(borrower) < BASIS_POINTS,\"borrower healthy\");\r\n\r\n        uint256 maxRepay = (borrowerDebt * closeFactor) / BASIS_POINTS;\r\n        uint256 actualRepayAmountSB = (repayAmountSB > maxRepay) ? maxRepay : repayAmountSB;\r\n        require(actualRepayAmountSB>0 , \"actual repay amount is zero\");\r\n\r\n        uint256 priceVL = priceOracle.getAssetPrice(address(vlToken));\r\n        uint256 priceSB = priceOracle.getAssetPrice(address(sbToken));\r\n        require(priceVL > 0 && priceSB > 0,\"price not set\");\r\n\r\n        uint256 repayValueUSD = (actualRepayAmountSB * priceSB)/PRICE_SCALE;\r\n        uint256 bonusMultiplier = BASIS_POINTS + liquidationBonus;\r\n\r\n        uint256 theoreticalCollClaimUSD = (repayValueUSD * bonusMultiplier) / BASIS_POINTS;\r\n        uint256 theoreticalVL = (theoreticalCollClaimUSD * PRICE_SCALE) / priceVL;\r\n\r\n        uint256 seizedVL = (theoreticalVL > borrowerColl) ? borrowerColl : theoreticalVL;\r\n\r\n        uint256 debtReductionSB = actualRepayAmountSB;\r\n\r\n        if(seizedVL < theoreticalVL){\r\n            uint256 actualCollateralUSD = (seizedVL * priceVL) / PRICE_SCALE;\r\n            uint256 debtReductionUSD = (actualCollateralUSD * BASIS_POINTS) / bonusMultiplier;\r\n            uint256 debtReductionSB_adj = (debtReductionUSD * PRICE_SCALE) / priceSB;\r\n\r\n            debtReductionSB = (debtReductionSB_adj > actualRepayAmountSB) ? actualRepayAmountSB : debtReductionSB_adj;\r\n\r\n            \r\n        }\r\n        if(debtReductionSB > borrowerDebt){\r\n                debtReductionSB = borrowerDebt;\r\n        }\r\n\r\n        debtBalance[borrower] -= debtReductionSB;\r\n        collateralBalance[borrower] -= seizedVL;\r\n\r\n   \r\n        require(IERC20(address(sbToken)).transferFrom(msg.sender, address(this), actualRepayAmountSB), \"transfer failed\");\r\n    \r\n        sbToken.burn(address(this), debtReductionSB);\r\n\r\n    \r\n        require(vlToken.transfer(msg.sender, seizedVL), \"collateral transfer failed\");\r\n\r\n        emit Liquidated(msg.sender, borrower, debtReductionSB, seizedVL);\r\n\r\n    }\r\n\r\n\r\n}",
  "sourcePath": "D:\\my-dapp\\contracts\\MoneyMarket.sol",
  "compiler": {
    "name": "solc",
    "version": "0.8.21+commit.d9974bed.Emscripten.clang"
  },
  "schemaVersion": "3.4.16",
  "updatedAt": "2025-10-24T02:49:17.518Z",
  "devdoc": {
    "errors": {
      "OwnableInvalidOwner(address)": [
        {
          "details": "The owner is not a valid owner account. (eg. `address(0)`)"
        }
      ],
      "OwnableUnauthorizedAccount(address)": [
        {
          "details": "The caller account is not authorized to perform an operation."
        }
      ]
    },
    "kind": "dev",
    "methods": {
      "owner()": {
        "details": "Returns the address of the current owner."
      },
      "renounceOwnership()": {
        "details": "Leaves the contract without owner. It will not be possible to call `onlyOwner` functions. Can only be called by the current owner. NOTE: Renouncing ownership will leave the contract without an owner, thereby disabling any functionality that is only available to the owner."
      },
      "transferOwnership(address)": {
        "details": "Transfers ownership of the contract to a new account (`newOwner`). Can only be called by the current owner."
      }
    },
    "version": 1
  },
  "userdoc": {
    "kind": "user",
    "methods": {},
    "version": 1
  }
}